:020000040000fa
:08000000ffff002009000000d1
:020000040000fa
:10000800f8b5de4657464e464546324c324be0b5cb
:100018009c423ad210229446953291460122924649
:100028000122013b181b80080130800090460132f4
:1000380020182300002529490426934610e0474646
:100048008a79174209d067468a68174205d14a4615
:1000580057460a738a793a438a710433834214d023
:100068001d600a7852b2002a03db5f460a781742fd
:10007800f3d00a781642e2d167468a681742ecd173
:100088004a4604330a738342ead1154b9c420bd289
:10009800013b1a1b00239208013212499200c858ea
:1000a800e05004339342fad10f4b104a934209d2dd
:1000b8000321013ad21a8a43191d5218002102c39a
:1000c8009a42fcd100f014f83cbc90469946a246ee
:1000d800ab46f8bd18000020ffff002000200040bc
:1000e800cc0b002008010000cc0b0020180f0020ca
:1000f80001b40248844601bc604700bf990b002048
:020000040000fa
:1001080070b5264c2578002d00d070bd00f028fd74
:100118000028fad000f02cfdc6b200f04bfd0028f4
:1001280017d162786368002a20d0a2689a4204d95d
:100138001b48591cc6540b0061609a4206d1002323
:10014800226101226360a3602270637000f024fdc5
:10015800dbe701236360124b65701e700023114ab0
:10016800d35cb342f2d000236360efe70c495a1c1a
:100178006260ce54042af2d9092ae7d10a4b0a68e8
:100188009a4203d0512000f0e1fcece74b68a360f1
:100198008b682373012363706373e4e7cc0b00203f
:1001a800f00c0020ac0b00204d434850f0b5de4663
:1001b80057464e464546754be0b59b46744b83b053
:1001c8000433744c9a4605e02378002b57d1637b9f
:1001d800002b44d000f0eaf8fff792ff237d002bb4
:1001e800f2d0a769236938001e1f00f0ddfb03e089
:1001f800fff786ff00f0daf800f0cefb0028f7d111
:10020800a369e269934231d3226a93422ed2624ba8
:100218009846624b3800984703e0fff771ff00f0fb
:10022800c5f800f0b9fb0028f7d1002e12d0574bc3
:10023800002599464b4679195819c04703e0fff73e
:100248005fff00f0b3f800f0a7fb0028f7d14035b6
:10025800ae42efd800232375637b002bbad103b0dd
:100268003cbc90469946a246ab46f0bd4c4a9446e3
:100278006344ff2bcbd84b4b98464b4bcae7237ba9
:10028800a02b0dd0a12b3dd0a52b21d0a62b51d032
:10029800a22b68d0a32b5cd0522000f057fc14e0ae
:1002a800ff223b4b19685b6891430a003f218b434f
:1002b8009b189a4203d2802109038b4234d9002328
:1002c8005120e361236200f041fc002323707ee7a4
:1002d800ff222f4b1b689343314aa3619446634422
:1002e800ff2b1dd880220023520050465946c05883
:1002f800c85004339342f8d101235020237500f0ed
:1003080025fce2e7224b1b680193ff23019a9a43dd
:100318001300a261e269934202d3226a9342e1d3b5
:10032800512000f013fcd0e75020e261236200f076
:100338000dfccae7502000f009fc00f061fc050044
:10034800000a80b200f002fcff20284000f0fefb0b
:10035800bbe7502000f0fafb00f0f0fb0028fbd0d0
:1003680000f068f8b1e70a4be2691d68236a1000db
:10037800991a00f03df8854203d0542000f0e6fbbe
:10038800a3e7532000f0e2fb9fe7c046f00b0020f4
:10039800f00c0020cc0b0020fd0700202d080020c9
:1003a80000c07fff45080020850800200f4a137809
:1003b8005bb2002b02db13789b070fd50b4b1a7827
:1003c80052070cd59a79d20708d59a68d20605d46f
:1003d800a52201211a739a790a439a7170479a687b
:1003e800d206fbd4a5221a73f8e7c04600200040c5
:1003f800012370b55b4282b00d0006000121212067
:10040800019300f0ddfa002d0dd000248021301971
:10041800013401ab019a4900ff3400f039fafff7c3
:10042800c5ffa542f2d80221212000f0c9fa01989f
:1004380002b070bdbff34f8f034b044ada60bff3bd
:100448004f8fc046fde7c04600ed00e00400fa0506
:1004580080235b0170b51c68631c07d0044b002027
:100468001d6800f0f9fb84f30888284770bdc04672
:1004780004100000f0b5022346464f46d64698467b
:10048800c0b50227c24cc34dc34efff78fff00f023
:10049800d3fa03062cd4074200d09ee004239946e1
:1004a800034200d193e0ab789a46002b00d1dae002
:1004b8002b78002b04d100f0f1fa002800d021e1bc
:1004c800a37aa52b00d10de1a82b0bd100f098fb46
:1004d800eb78002b00d0f8e0000ac0b200f0c2fab6
:1004e8000123eb70002302202b7000f0dffa08e0f4
:1004f80000f0c2fa802000f0a5fa2022e37a134324
:10050800e372637a062b0bd89b00f3589f4600f0e2
:1005180043fa002804d10122e37a60729343e3721c
:100528006b78002bb1d11cbc90469946a246f0bd11
:100538000123994600f080fa4b460342fad0fff7b0
:1005480079ffede72369e268991a1000fff750ff79
:10055800a369984200d1c3e01022e37a1343012231
:100568009343e37200236372dae7a37ae169a72b66
:1005780000d095e0894bcb18ff2b00d899e00623d3
:100588006372cde700f008fa0028c9d16369a2694f
:10059800403363619342bed26772c1e7a06900f03d
:1005a80003fa00f0f9f90028fbd1a069e368984242
:1005b80005d3431c2269ff33934200d882e0774b6e
:1005c800c318ff2b00d89ae005236372a8e7c30776
:1005d80097d5012000f036fa93e7012399462b704e
:1005e8006b7000f053fa431e984100234a46a870e6
:1005f8002372e37a1a4232d0012000f057fa80e7da
:100608006368226806339b00d318511e2160e054aa
:100618002368002b23daa27a636811000133636030
:10062800b943a02900d1aae0a72a00d080e0012b75
:1006380000d8a6e053462372e369594a934200d88a
:10064800c0e08021a26949008a4200d9bae09b181b
:10065800544a934200d9b5e0002327722360002052
:1006680000f024fa4de700f0f3f9237a012bc7d004
:100678005ab2002a4ad0022bf1d123685a1ce31837
:1006880020331870a36922609a42e8d30122e37ae2
:100698001343e3725346636180239b002381dee7a3
:1006a800606941182030201800f01cf90623637295
:1006b80036e7636959182033e01800f037f9062344
:1006c80063722de700f026f97ee7c0b200f0caf9a0
:1006d8000023eb70002302202b7000f0e7f910e7ed
:1006e800e37a3ce7e07a00f0bdf93e22e37a0220a3
:1006f8009343e37200232b7000f0d8f901e700f070
:1007080035f961e7032000f0d1f9fae60323236005
:1007180003006033dbb2a0726260082b1cd8a428e7
:1007280032d0a5289bd0a82899d00123237296e718
:1007380000232372a02a14d0a22a35d0a12a46d099
:10074800a72a00d178e7a32a89d10122e37a1343a3
:10075800e3720323637282e74246e37a1343e37248
:100768004ae73f228020e37aa1699343e269e37272
:100778008a180003824226d8e16022616fe7012bc4
:10078800d6d8032323606ae74b46637267e7c046ff
:10079800f80d0020f40d0020b00b002000c07ffff2
:1007a800ff3f800000418000e369e268934209d37b
:1007b8008021a26949008a4204d89b182269934281
:1007c80000d849e7e37a04221343e37214e7a369e4
:1007d800e26893420bd35a1c2169ff328a4206d839
:1007e8000122e37a1343e3720123637237e7054a70
:1007f8009342e7d90133044aff339342f0d9e37aad
:10080800e1e7c046ff3f800000418000194b04210a
:100818005a681b685203db0c13439b02164a9b0a57
:1008280093630023537593691942fcd1102212492e
:10083800cb681a42fcd000220421104b9a611a613d
:100848000f4a104b136253681942fcd1cc23402144
:10085800cc20d1500a4a13581942fcd0d423d15085
:10086800d4214022064843581a42fcd0064b074a76
:10087800da617047206080000010004000140040da
:10088800001c004006010100000800401400000898
:1008980010b5002911d0002b0fd00b4c6060a1605f
:1008a800e26062780120d2b262700422227061781c
:1008b8000842fcd061784a0701d5002010bde268e3
:1008c80001201a60fae7c046002000417047c04680
:1008d800bff35f8f62b670478422014b5a6070473e
:1008e8000040004130b50c000b00401a4034043879
:1008f8001a1d15581d601300a242f9d1034b044a72
:100908004908d96101201a8030bdc0460040004125
:1009180004a5ffff034b044a4008d86101201a8050
:100928007047c0460040004102a5ffff0c4b30b5a0
:10093800ca180023c02a01d9180030bd0c000b00ca
:10094800401a403404381a1d15581d601300a2427d
:10095800f9d1044b044a4908d9611a800123ebe70d
:1009680000c07fff0040004106a5ffff8022074b23
:100978005200c1180023914205d8054b054a40088a
:10098800d8611a80012318007047c04600c07fff55
:100998000040004105a5ffff0120024b5b69984319
:1009a8007047c04600400041024b034a4008d861e6
:1009b8001a8070470040004141a5ffff7047c046bc
:1009c800802300040904000c0843db051860704705
:1009d80082238c22db0512051a61522101225a5406
:1009e80001315a54043203315a5401315a5456329f
:1009f80051399954393a33315a5402315a5470475b
:100a080001230b4a1360d369002bfcd1094b1360f7
:100a1800074ad369002bfcd1022180335362136843
:100a28000b431360024ad369002bfcd17047c046c0
:100a38000010004210001000014b187ec0b2704731
:100a480000100042014b18767047c0460010004263
:100a5800034ad369002bfcd12833d05cc0b270475d
:100a6800001000422823034ad054d369002bfcd13c
:100a78007047c04600100042024a034b508b184092
:100a8800538370470010004243020000024b588b0a
:100a98000007c00f7047c04600100042024b588b39
:100aa8004007c00f7047c04600100042002808d118
:100ab8001249134a4b681a40c0239b0213434b60e8
:100ac800704701280cd0022811d00328f8d10b490f
:100ad8000c4a4b681a4080239b0213434b60efe794
:100ae800e023064adb0251680b435360e8e7c02362
:100af800024a9b0251680b435360e1e70010004231
:100b0800fffff8fffffffcff094a0a4b13600a4b7f
:100b18009381c0239b025360d369002bfcd102212f
:100b280013680b431360024ad369002bfcd170474a
:100b380000080042040131412bf6ffff024b187eea
:100b48008007c00f7047c046000800420121034ad1
:100b5800137e1942fcd080b210857047000800420d
:100b6800024b187e4007c00f7047c046000800427d
:100b7800014b188d80b27047000800420022044bd8
:100b88001a609a60034a5a6004221a607047c04685
:100b980010e000e0ff3d490001200022044b1968e5
:100ba800814319609a601a6802431a607047c04608
:100bb80010e000e0024b1868c003c00f7047c04641
:100bc80010e000e010b5fff787fefff701ff00f027
:100bd8001bf8002810d0fff719fefff711fffff7e9
:100be8007bfefff791fffff771fefff7c7fffff7e7
:100bf800e5fefff76dfe10bdfff72afcebe7c046e8
:100c0800c02080007047c0466022114b1b781a42f2
:100c180005d080239b050f491a688a420ad0802391
:100c280000229b051a6082230120db051b6adb0e6c
:100c38009843704759689142f1d19a688a42eed137
:100c4800d9689142ebd1002201201a60f1e7c04631
:100c5800000c00404d434850822300225221db05fe
:100c68001a615a5401315a5403315a5401315a54b1
:100c780004315a5422395a5402315a547047c046e2
:100c880010b50020fff79efffff790fafff7f2fb81
:100c9800fae7c0464d43485038040020b404002009
:100ca800820400205c040020480400202604002060
:040cb8009c04002078
:00000001FF
